{
  "contractName": "TracksDapp",
  "abi": [
    {
      "inputs": [],
      "stateMutability": "nonpayable",
      "type": "constructor"
    },
    {
      "inputs": [],
      "name": "owner",
      "outputs": [
        {
          "internalType": "address payable",
          "name": "",
          "type": "address"
        }
      ],
      "stateMutability": "view",
      "type": "function"
    },
    {
      "inputs": [
        {
          "internalType": "uint256",
          "name": "_value",
          "type": "uint256"
        },
        {
          "internalType": "string",
          "name": "_name",
          "type": "string"
        }
      ],
      "name": "addTrack",
      "outputs": [],
      "stateMutability": "nonpayable",
      "type": "function"
    },
    {
      "inputs": [
        {
          "internalType": "string",
          "name": "trackName",
          "type": "string"
        }
      ],
      "name": "buyAdvertisement",
      "outputs": [],
      "stateMutability": "payable",
      "type": "function"
    },
    {
      "inputs": [
        {
          "internalType": "string",
          "name": "_name",
          "type": "string"
        }
      ],
      "name": "getTrack",
      "outputs": [
        {
          "internalType": "address",
          "name": "",
          "type": "address"
        },
        {
          "internalType": "uint256",
          "name": "",
          "type": "uint256"
        }
      ],
      "stateMutability": "view",
      "type": "function"
    },
    {
      "inputs": [
        {
          "internalType": "string",
          "name": "_name",
          "type": "string"
        }
      ],
      "name": "redeemAdvertise",
      "outputs": [
        {
          "internalType": "bool",
          "name": "",
          "type": "bool"
        }
      ],
      "stateMutability": "nonpayable",
      "type": "function"
    }
  ],
  "bytecode": "0x608060405234801561001057600080fd5b50336000806101000a81548173ffffffffffffffffffffffffffffffffffffffff021916908373ffffffffffffffffffffffffffffffffffffffff160217905550610ac2806100606000396000f3fe60806040526004361061004a5760003560e01c806376124bdf1461004f5780638da5cb5b146101215780639a568dd014610178578063b01ff92914610233578063dfb5ada414610313575b600080fd5b34801561005b57600080fd5b5061011f6004803603604081101561007257600080fd5b81019080803590602001909291908035906020019064010000000081111561009957600080fd5b8201836020820111156100ab57600080fd5b803590602001918460018302840111640100000000831117156100cd57600080fd5b91908080601f016020809104026020016040519081016040528093929190818152602001838380828437600081840152601f19601f820116905080830192505050505050509192919290505050610422565b005b34801561012d57600080fd5b50610136610542565b604051808273ffffffffffffffffffffffffffffffffffffffff1673ffffffffffffffffffffffffffffffffffffffff16815260200191505060405180910390f35b6102316004803603602081101561018e57600080fd5b81019080803590602001906401000000008111156101ab57600080fd5b8201836020820111156101bd57600080fd5b803590602001918460018302840111640100000000831117156101df57600080fd5b91908080601f016020809104026020016040519081016040528093929190818152602001838380828437600081840152601f19601f820116905080830192505050505050509192919290505050610567565b005b34801561023f57600080fd5b506102f96004803603602081101561025657600080fd5b810190808035906020019064010000000081111561027357600080fd5b82018360208201111561028557600080fd5b803590602001918460018302840111640100000000831117156102a757600080fd5b91908080601f016020809104026020016040519081016040528093929190818152602001838380828437600081840152601f19601f82011690508083019250505050505050919291929050505061075b565b604051808215151515815260200191505060405180910390f35b34801561031f57600080fd5b506103d96004803603602081101561033657600080fd5b810190808035906020019064010000000081111561035357600080fd5b82018360208201111561036557600080fd5b8035906020019184600183028401116401000000008311171561038757600080fd5b91908080601f016020809104026020016040519081016040528093929190818152602001838380828437600081840152601f19601f82011690508083019250505050505050919291929050505061093b565b604051808373ffffffffffffffffffffffffffffffffffffffff1673ffffffffffffffffffffffffffffffffffffffff1681526020018281526020019250505060405180910390f35b336001826040518082805190602001908083835b602083106104595780518252602082019150602081019050602083039250610436565b6001836020036101000a038019825116818451168082178552505050505050905001915050908152602001604051809103902060000160006101000a81548173ffffffffffffffffffffffffffffffffffffffff021916908373ffffffffffffffffffffffffffffffffffffffff160217905550816001826040518082805190602001908083835b6020831061050457805182526020820191506020810190506020830392506104e1565b6001836020036101000a0380198251168184511680821785525050505050509050019150509081526020016040518091039020600201819055505050565b6000809054906101000a900473ffffffffffffffffffffffffffffffffffffffff1681565b61056f610a33565b6001826040518082805190602001908083835b602083106105a55780518252602082019150602081019050602083039250610582565b6001836020036101000a03801982511681845116808217855250505050505090500191505090815260200160405180910390206040518060400160405290816000820160009054906101000a900473ffffffffffffffffffffffffffffffffffffffff1673ffffffffffffffffffffffffffffffffffffffff1673ffffffffffffffffffffffffffffffffffffffff16815260200160028201548152505090506000816000015190508073ffffffffffffffffffffffffffffffffffffffff166108fc349081150290604051600060405180830381858888f19350505050158015610694573d6000803e3d6000fd5b50600180846040518082805190602001908083835b602083106106cc57805182526020820191506020810190506020830392506106a9565b6001836020036101000a038019825116818451168082178552505050505050905001915050908152602001604051809103902060010160003373ffffffffffffffffffffffffffffffffffffffff1673ffffffffffffffffffffffffffffffffffffffff16815260200190815260200160002060006101000a81548160ff021916908315150217905550505050565b6000600115156001836040518082805190602001908083835b602083106107975780518252602082019150602081019050602083039250610774565b6001836020036101000a038019825116818451168082178552505050505050905001915050908152602001604051809103902060010160003373ffffffffffffffffffffffffffffffffffffffff1673ffffffffffffffffffffffffffffffffffffffff16815260200190815260200160002060009054906101000a900460ff16151514610870576040517f08c379a0000000000000000000000000000000000000000000000000000000008152600401808060200182810382526029815260200180610a646029913960400191505060405180910390fd5b60006001836040518082805190602001908083835b602083106108a85780518252602082019150602081019050602083039250610885565b6001836020036101000a038019825116818451168082178552505050505050905001915050908152602001604051809103902060010160003373ffffffffffffffffffffffffffffffffffffffff1673ffffffffffffffffffffffffffffffffffffffff16815260200190815260200160002060006101000a81548160ff02191690831515021790555060019050919050565b600080610946610a33565b6001846040518082805190602001908083835b6020831061097c5780518252602082019150602081019050602083039250610959565b6001836020036101000a03801982511681845116808217855250505050505090500191505090815260200160405180910390206040518060400160405290816000820160009054906101000a900473ffffffffffffffffffffffffffffffffffffffff1673ffffffffffffffffffffffffffffffffffffffff1673ffffffffffffffffffffffffffffffffffffffff1681526020016002820154815250509050806000015181602001518191509250925050915091565b6040518060400160405280600073ffffffffffffffffffffffffffffffffffffffff16815260200160008152509056fe596f752063616e2774206164766572746973652c20796f752073686f756c6420627579206669727374a264697066735822122033c59bcb4684a466d3dd57245abf97a3e97cd0e69804563bee8cf147a5ab508464736f6c63430006000033",
  "source": "pragma solidity ^0.6.0;\r\ncontract TracksDapp {\r\n    address payable public owner;\r\n    struct Track{\r\n        address payable ownerAddress;\r\n        mapping(address=>bool) advertisers;\r\n        uint256 value;//value for 1 advertisement\r\n    }\r\n    mapping (string=>Track) Tracks;\r\n    constructor ()public {\r\n        owner=msg.sender;\r\n    }\r\n    \r\n    function addTrack(uint256  _value,string memory _name)public {\r\n        \r\n        Tracks[_name].ownerAddress=msg.sender;\r\n        Tracks[_name].value=_value;\r\n    }\r\n    function buyAdvertisement ( string memory trackName) public payable {\r\n        Track memory track=Tracks[trackName];\r\n        address payable trackOwner=track.ownerAddress;\r\n        trackOwner.transfer(msg.value);\r\n        Tracks[trackName].advertisers[msg.sender]=true;\r\n    } \r\n    \r\n    function getTrack(string memory _name)public view returns(address,uint256){\r\n        Track memory track=Tracks[_name];\r\n        return (track.ownerAddress,track.value);\r\n    }\r\n    \r\n   \r\n    \r\n    function redeemAdvertise(string memory _name) public returns(bool){\r\n        require(Tracks[_name].advertisers[msg.sender] == true,\"You can't advertise, you should buy first\");\r\n        Tracks[_name].advertisers[msg.sender] = false;\r\n        return true;\r\n    }\r\n}\r\n\r\n\r\n\r\n",
  "sourcePath": "F:\\matic-reactnativtest\\contracts\\TracksDapp.sol",
  "compiler": {
    "name": "solc",
    "version": "0.6.0+commit.26b70077.Emscripten.clang"
  },
  "schemaVersion": "3.2.2",
  "updatedAt": "2020-08-31T13:53:13.956Z",
  "devdoc": {
    "methods": {}
  },
  "userdoc": {
    "methods": {}
  }
}